{
  "contractName": "SistemaSanitario",
  "abi": [
    {
      "constant": true,
      "inputs": [
        {
          "name": "_interfaceId",
          "type": "bytes4"
        }
      ],
      "name": "supportsInterface",
      "outputs": [
        {
          "name": "",
          "type": "bool"
        }
      ],
      "payable": false,
      "stateMutability": "view",
      "type": "function"
    },
    {
      "constant": true,
      "inputs": [],
      "name": "name",
      "outputs": [
        {
          "name": "",
          "type": "string"
        }
      ],
      "payable": false,
      "stateMutability": "view",
      "type": "function"
    },
    {
      "constant": true,
      "inputs": [
        {
          "name": "_tokenId",
          "type": "uint256"
        }
      ],
      "name": "getApproved",
      "outputs": [
        {
          "name": "",
          "type": "address"
        }
      ],
      "payable": false,
      "stateMutability": "view",
      "type": "function"
    },
    {
      "constant": false,
      "inputs": [
        {
          "name": "_to",
          "type": "address"
        },
        {
          "name": "_tokenId",
          "type": "uint256"
        }
      ],
      "name": "approve",
      "outputs": [],
      "payable": false,
      "stateMutability": "nonpayable",
      "type": "function"
    },
    {
      "constant": true,
      "inputs": [],
      "name": "totalSupply",
      "outputs": [
        {
          "name": "",
          "type": "uint256"
        }
      ],
      "payable": false,
      "stateMutability": "view",
      "type": "function"
    },
    {
      "constant": true,
      "inputs": [],
      "name": "InterfaceId_ERC165",
      "outputs": [
        {
          "name": "",
          "type": "bytes4"
        }
      ],
      "payable": false,
      "stateMutability": "view",
      "type": "function"
    },
    {
      "constant": false,
      "inputs": [
        {
          "name": "_from",
          "type": "address"
        },
        {
          "name": "_to",
          "type": "address"
        },
        {
          "name": "_tokenId",
          "type": "uint256"
        }
      ],
      "name": "transferFrom",
      "outputs": [],
      "payable": false,
      "stateMutability": "nonpayable",
      "type": "function"
    },
    {
      "constant": true,
      "inputs": [],
      "name": "sanidad_addr",
      "outputs": [
        {
          "name": "",
          "type": "address"
        }
      ],
      "payable": false,
      "stateMutability": "view",
      "type": "function"
    },
    {
      "constant": true,
      "inputs": [
        {
          "name": "_owner",
          "type": "address"
        },
        {
          "name": "_index",
          "type": "uint256"
        }
      ],
      "name": "tokenOfOwnerByIndex",
      "outputs": [
        {
          "name": "",
          "type": "uint256"
        }
      ],
      "payable": false,
      "stateMutability": "view",
      "type": "function"
    },
    {
      "constant": false,
      "inputs": [
        {
          "name": "_from",
          "type": "address"
        },
        {
          "name": "_to",
          "type": "address"
        },
        {
          "name": "_tokenId",
          "type": "uint256"
        }
      ],
      "name": "safeTransferFrom",
      "outputs": [],
      "payable": false,
      "stateMutability": "nonpayable",
      "type": "function"
    },
    {
      "constant": true,
      "inputs": [
        {
          "name": "",
          "type": "address"
        }
      ],
      "name": "medicos",
      "outputs": [
        {
          "name": "medico",
          "type": "address"
        },
        {
          "name": "especialidad",
          "type": "string"
        },
        {
          "name": "fechaalta",
          "type": "uint256"
        },
        {
          "name": "fechabaja",
          "type": "uint256"
        },
        {
          "name": "autorizado",
          "type": "bool"
        },
        {
          "name": "isExist",
          "type": "bool"
        }
      ],
      "payable": false,
      "stateMutability": "view",
      "type": "function"
    },
    {
      "constant": true,
      "inputs": [
        {
          "name": "_tokenId",
          "type": "uint256"
        }
      ],
      "name": "exists",
      "outputs": [
        {
          "name": "",
          "type": "bool"
        }
      ],
      "payable": false,
      "stateMutability": "view",
      "type": "function"
    },
    {
      "constant": true,
      "inputs": [
        {
          "name": "_index",
          "type": "uint256"
        }
      ],
      "name": "tokenByIndex",
      "outputs": [
        {
          "name": "",
          "type": "uint256"
        }
      ],
      "payable": false,
      "stateMutability": "view",
      "type": "function"
    },
    {
      "constant": true,
      "inputs": [
        {
          "name": "_tokenId",
          "type": "uint256"
        }
      ],
      "name": "ownerOf",
      "outputs": [
        {
          "name": "",
          "type": "address"
        }
      ],
      "payable": false,
      "stateMutability": "view",
      "type": "function"
    },
    {
      "constant": true,
      "inputs": [
        {
          "name": "",
          "type": "address"
        }
      ],
      "name": "ciudadanos",
      "outputs": [
        {
          "name": "ciudadano",
          "type": "address"
        },
        {
          "name": "SSID",
          "type": "uint256"
        },
        {
          "name": "fechaalta",
          "type": "uint256"
        },
        {
          "name": "fechabaja",
          "type": "uint256"
        },
        {
          "name": "fechareactivacion",
          "type": "uint256"
        },
        {
          "name": "estado",
          "type": "uint256"
        },
        {
          "name": "isExist",
          "type": "bool"
        }
      ],
      "payable": false,
      "stateMutability": "view",
      "type": "function"
    },
    {
      "constant": true,
      "inputs": [
        {
          "name": "_owner",
          "type": "address"
        }
      ],
      "name": "balanceOf",
      "outputs": [
        {
          "name": "",
          "type": "uint256"
        }
      ],
      "payable": false,
      "stateMutability": "view",
      "type": "function"
    },
    {
      "constant": false,
      "inputs": [],
      "name": "renounceOwnership",
      "outputs": [],
      "payable": false,
      "stateMutability": "nonpayable",
      "type": "function"
    },
    {
      "constant": false,
      "inputs": [
        {
          "name": "_to",
          "type": "address"
        }
      ],
      "name": "mintTo",
      "outputs": [
        {
          "name": "",
          "type": "uint256"
        }
      ],
      "payable": false,
      "stateMutability": "nonpayable",
      "type": "function"
    },
    {
      "constant": true,
      "inputs": [],
      "name": "owner",
      "outputs": [
        {
          "name": "",
          "type": "address"
        }
      ],
      "payable": false,
      "stateMutability": "view",
      "type": "function"
    },
    {
      "constant": true,
      "inputs": [],
      "name": "symbol",
      "outputs": [
        {
          "name": "",
          "type": "string"
        }
      ],
      "payable": false,
      "stateMutability": "view",
      "type": "function"
    },
    {
      "constant": false,
      "inputs": [
        {
          "name": "_to",
          "type": "address"
        },
        {
          "name": "_approved",
          "type": "bool"
        }
      ],
      "name": "setApprovalForAll",
      "outputs": [],
      "payable": false,
      "stateMutability": "nonpayable",
      "type": "function"
    },
    {
      "constant": true,
      "inputs": [
        {
          "name": "",
          "type": "address"
        }
      ],
      "name": "aseguradoras",
      "outputs": [
        {
          "name": "seguro",
          "type": "address"
        },
        {
          "name": "especialidad",
          "type": "string"
        },
        {
          "name": "fechaalta",
          "type": "uint256"
        },
        {
          "name": "fechabaja",
          "type": "uint256"
        },
        {
          "name": "autorizado",
          "type": "bool"
        },
        {
          "name": "isExist",
          "type": "bool"
        }
      ],
      "payable": false,
      "stateMutability": "view",
      "type": "function"
    },
    {
      "constant": false,
      "inputs": [
        {
          "name": "_from",
          "type": "address"
        },
        {
          "name": "_to",
          "type": "address"
        },
        {
          "name": "_tokenId",
          "type": "uint256"
        },
        {
          "name": "_data",
          "type": "bytes"
        }
      ],
      "name": "safeTransferFrom",
      "outputs": [],
      "payable": false,
      "stateMutability": "nonpayable",
      "type": "function"
    },
    {
      "constant": true,
      "inputs": [
        {
          "name": "_tokenId",
          "type": "uint256"
        }
      ],
      "name": "tokenURI",
      "outputs": [
        {
          "name": "",
          "type": "string"
        }
      ],
      "payable": false,
      "stateMutability": "view",
      "type": "function"
    },
    {
      "constant": true,
      "inputs": [
        {
          "name": "_owner",
          "type": "address"
        },
        {
          "name": "_operator",
          "type": "address"
        }
      ],
      "name": "isApprovedForAll",
      "outputs": [
        {
          "name": "",
          "type": "bool"
        }
      ],
      "payable": false,
      "stateMutability": "view",
      "type": "function"
    },
    {
      "constant": false,
      "inputs": [
        {
          "name": "_newOwner",
          "type": "address"
        }
      ],
      "name": "transferOwnership",
      "outputs": [],
      "payable": false,
      "stateMutability": "nonpayable",
      "type": "function"
    },
    {
      "inputs": [
        {
          "name": "_nombre",
          "type": "string"
        },
        {
          "name": "_pais",
          "type": "string"
        }
      ],
      "payable": false,
      "stateMutability": "nonpayable",
      "type": "constructor"
    },
    {
      "anonymous": false,
      "inputs": [
        {
          "indexed": false,
          "name": "_expediente",
          "type": "string"
        },
        {
          "indexed": false,
          "name": "_addressMedico",
          "type": "address"
        },
        {
          "indexed": false,
          "name": "_addressCiudadano",
          "type": "address"
        },
        {
          "indexed": false,
          "name": "_SSID",
          "type": "uint256"
        },
        {
          "indexed": false,
          "name": "_numExpediente",
          "type": "uint256"
        },
        {
          "indexed": false,
          "name": "_fecha",
          "type": "uint256"
        }
      ],
      "name": "eventExpediente",
      "type": "event"
    },
    {
      "anonymous": false,
      "inputs": [
        {
          "indexed": true,
          "name": "previousOwner",
          "type": "address"
        }
      ],
      "name": "OwnershipRenounced",
      "type": "event"
    },
    {
      "anonymous": false,
      "inputs": [
        {
          "indexed": true,
          "name": "previousOwner",
          "type": "address"
        },
        {
          "indexed": true,
          "name": "newOwner",
          "type": "address"
        }
      ],
      "name": "OwnershipTransferred",
      "type": "event"
    },
    {
      "anonymous": false,
      "inputs": [
        {
          "indexed": true,
          "name": "_from",
          "type": "address"
        },
        {
          "indexed": true,
          "name": "_to",
          "type": "address"
        },
        {
          "indexed": true,
          "name": "_tokenId",
          "type": "uint256"
        }
      ],
      "name": "Transfer",
      "type": "event"
    },
    {
      "anonymous": false,
      "inputs": [
        {
          "indexed": true,
          "name": "_owner",
          "type": "address"
        },
        {
          "indexed": true,
          "name": "_approved",
          "type": "address"
        },
        {
          "indexed": true,
          "name": "_tokenId",
          "type": "uint256"
        }
      ],
      "name": "Approval",
      "type": "event"
    },
    {
      "anonymous": false,
      "inputs": [
        {
          "indexed": true,
          "name": "_owner",
          "type": "address"
        },
        {
          "indexed": true,
          "name": "_operator",
          "type": "address"
        },
        {
          "indexed": false,
          "name": "_approved",
          "type": "bool"
        }
      ],
      "name": "ApprovalForAll",
      "type": "event"
    },
    {
      "constant": false,
      "inputs": [
        {
          "name": "_especialidad",
          "type": "string"
        }
      ],
      "name": "altaMedico",
      "outputs": [],
      "payable": false,
      "stateMutability": "nonpayable",
      "type": "function"
    },
    {
      "constant": true,
      "inputs": [
        {
          "name": "_adrMedico",
          "type": "address"
        }
      ],
      "name": "consultaMedico",
      "outputs": [
        {
          "name": "",
          "type": "string"
        },
        {
          "name": "",
          "type": "uint256"
        },
        {
          "name": "",
          "type": "uint256"
        },
        {
          "name": "",
          "type": "bool"
        }
      ],
      "payable": false,
      "stateMutability": "view",
      "type": "function"
    },
    {
      "constant": false,
      "inputs": [
        {
          "name": "_adrMedico",
          "type": "address"
        }
      ],
      "name": "bajaMedico",
      "outputs": [
        {
          "name": "",
          "type": "string"
        },
        {
          "name": "",
          "type": "uint256"
        },
        {
          "name": "",
          "type": "uint256"
        },
        {
          "name": "",
          "type": "bool"
        }
      ],
      "payable": false,
      "stateMutability": "nonpayable",
      "type": "function"
    },
    {
      "constant": false,
      "inputs": [
        {
          "name": "_adrMedico",
          "type": "address"
        }
      ],
      "name": "autorizarMedico",
      "outputs": [],
      "payable": false,
      "stateMutability": "nonpayable",
      "type": "function"
    },
    {
      "constant": false,
      "inputs": [
        {
          "name": "_adrMedico",
          "type": "address"
        }
      ],
      "name": "desautorizarMedico",
      "outputs": [],
      "payable": false,
      "stateMutability": "nonpayable",
      "type": "function"
    },
    {
      "constant": false,
      "inputs": [
        {
          "name": "_adrCiudadano",
          "type": "address"
        }
      ],
      "name": "altaCiudadano",
      "outputs": [],
      "payable": false,
      "stateMutability": "nonpayable",
      "type": "function"
    },
    {
      "constant": false,
      "inputs": [
        {
          "name": "_adrCiudadano",
          "type": "address"
        }
      ],
      "name": "bajaCiudadano",
      "outputs": [],
      "payable": false,
      "stateMutability": "nonpayable",
      "type": "function"
    },
    {
      "constant": false,
      "inputs": [
        {
          "name": "_adrCiudadano",
          "type": "address"
        },
        {
          "name": "_estado",
          "type": "uint256"
        }
      ],
      "name": "modifCiudadano",
      "outputs": [],
      "payable": false,
      "stateMutability": "nonpayable",
      "type": "function"
    },
    {
      "constant": false,
      "inputs": [
        {
          "name": "_adrAseguradora",
          "type": "address"
        },
        {
          "name": "_especialidad",
          "type": "string"
        }
      ],
      "name": "altaAseguradora",
      "outputs": [],
      "payable": false,
      "stateMutability": "nonpayable",
      "type": "function"
    },
    {
      "constant": false,
      "inputs": [
        {
          "name": "_adrCiudadano",
          "type": "address"
        },
        {
          "name": "_dolencia",
          "type": "string"
        },
        {
          "name": "_tratamiento",
          "type": "string"
        },
        {
          "name": "_duracion",
          "type": "uint256"
        }
      ],
      "name": "insertExpediente",
      "outputs": [],
      "payable": false,
      "stateMutability": "nonpayable",
      "type": "function"
    },
    {
      "constant": false,
      "inputs": [
        {
          "name": "_adrCiudadano",
          "type": "address"
        },
        {
          "name": "_IDexpediente",
          "type": "uint256"
        }
      ],
      "name": "consultaExpediente",
      "outputs": [
        {
          "name": "",
          "type": "uint256"
        },
        {
          "name": "",
          "type": "address"
        },
        {
          "name": "",
          "type": "string"
        },
        {
          "name": "",
          "type": "string"
        },
        {
          "name": "",
          "type": "string"
        },
        {
          "name": "",
          "type": "uint256"
        }
      ],
      "payable": false,
      "stateMutability": "nonpayable",
      "type": "function"
    },
    {
      "constant": false,
      "inputs": [
        {
          "name": "_adrCiudadano",
          "type": "address"
        },
        {
          "name": "_IDexpediente",
          "type": "uint256"
        }
      ],
      "name": "consultaExpedienteAseguradora",
      "outputs": [
        {
          "name": "",
          "type": "uint256"
        },
        {
          "name": "",
          "type": "address"
        },
        {
          "name": "",
          "type": "string"
        },
        {
          "name": "",
          "type": "string"
        },
        {
          "name": "",
          "type": "string"
        },
        {
          "name": "",
          "type": "uint256"
        }
      ],
      "payable": true,
      "stateMutability": "payable",
      "type": "function"
    }
  ],
  "bytecode": "0x60806040523480156200001157600080fd5b50604051620034293803806200342983398101604081815282516020808501518385018452601085527f53697374656d6153616e69746172696f00000000000000000000000000000000828601528351808501909452600484527f53534944000000000000000000000000000000000000000000000000000000009184019190915290840193019190620000ce7f01ffc9a70000000000000000000000000000000000000000000000000000000064010000000062000224810204565b620001027f80ac58cd0000000000000000000000000000000000000000000000000000000064010000000062000224810204565b620001367f4f558e790000000000000000000000000000000000000000000000000000000064010000000062000224810204565b81516200014b90600590602085019062000291565b5080516200016190600690602084019062000291565b50620001967f780e9d630000000000000000000000000000000000000000000000000000000064010000000062000224810204565b620001ca7f5b5e139f0000000000000000000000000000000000000000000000000000000064010000000062000224810204565b5050600c8054600160a060020a031916331790558151620001f390600d90602085019062000291565b5080516200020990600e90602084019062000291565b5050600f8054600160a060020a031916331790555062000336565b7fffffffff0000000000000000000000000000000000000000000000000000000080821614156200025457600080fd5b7fffffffff00000000000000000000000000000000000000000000000000000000166000908152602081905260409020805460ff19166001179055565b828054600181600116156101000203166002900490600052602060002090601f016020900481019282601f10620002d457805160ff191683800117855562000304565b8280016001018555821562000304579182015b8281111562000304578251825591602001919060010190620002e7565b506200031292915062000316565b5090565b6200033391905b808211156200031257600081556001016200031d565b90565b6130e380620003466000396000f3006080604052600436106101d75763ffffffff7c010000000000000000000000000000000000000000000000000000000060003504166301ffc9a781146101dc57806306fdde0314610212578063074c92f91461029c578063081812fc1461042b578063095ea7b31461045f57806318160ddd1461048557806319fa8f50146104ac57806323b872dd146104de5780632569503e146105085780632f745c591461051d578063329731f014610541578063418ee2c81461059a57806342842e0e146106015780634dfa18641461062b5780634f558e79146106f45780634f6ccce71461070c57806362d8aca3146107245780636352211e1461074857806363822ec5146107605780636f35bbd8146107c557806370a0823114610877578063715018a614610898578063755edd17146108ad5780637e434844146108ce57806388c3480f146108ef5780638da5cb5b146109105780638fac01901461092557806395d89b411461093c5780639a2fc38814610951578063a22cb46514610972578063aa0a277914610998578063b88d4fde146109b9578063c87b56dd14610a28578063d037425414610a40578063e985e9c514610a61578063ed609dd314610a88578063f2fde38b14610aa9578063fbeb969514610aca575b600080fd5b3480156101e857600080fd5b506101fe600160e060020a031960043516610b71565b604080519115158252519081900360200190f35b34801561021e57600080fd5b50610227610b90565b6040805160208082528351818301528351919283929083019185019080838360005b83811015610261578181015183820152602001610249565b50505050905090810190601f16801561028e5780820380516001836020036101000a031916815260200191505b509250505060405180910390f35b3480156102a857600080fd5b506102c0600160a060020a0360043516602435610c27565b6040518087815260200186600160a060020a0316600160a060020a03168152602001806020018060200180602001858152602001848103845288818151815260200191508051906020019080838360005b83811015610329578181015183820152602001610311565b50505050905090810190601f1680156103565780820380516001836020036101000a031916815260200191505b50848103835287518152875160209182019189019080838360005b83811015610389578181015183820152602001610371565b50505050905090810190601f1680156103b65780820380516001836020036101000a031916815260200191505b50848103825286518152865160209182019188019080838360005b838110156103e95781810151838201526020016103d1565b50505050905090810190601f1680156104165780820380516001836020036101000a031916815260200191505b50995050505050505050505060405180910390f35b34801561043757600080fd5b50610443600435611152565b60408051600160a060020a039092168252519081900360200190f35b34801561046b57600080fd5b50610483600160a060020a036004351660243561116d565b005b34801561049157600080fd5b5061049a611216565b60408051918252519081900360200190f35b3480156104b857600080fd5b506104c161121c565b60408051600160e060020a03199092168252519081900360200190f35b3480156104ea57600080fd5b50610483600160a060020a0360043581169060243516604435611240565b34801561051457600080fd5b506104436112e3565b34801561052957600080fd5b5061049a600160a060020a03600435166024356112f2565b34801561054d57600080fd5b506040805160206004803580820135601f810184900484028501840190955284845261048394369492936024939284019190819084018382808284375094975061133f9650505050505050565b3480156105a657600080fd5b5060408051602060046024803582810135601f8101859004850286018501909652858552610483958335600160a060020a031695369560449491939091019190819084018382808284375094975061148c9650505050505050565b34801561060d57600080fd5b50610483600160a060020a03600435811690602435166044356115cd565b34801561063757600080fd5b5061064c600160a060020a03600435166115ee565b60408051600160a060020a038816815290810185905260608101849052821515608082015281151560a082015260c06020808301828152885192840192909252875160e084019189019080838360005b838110156106b457818101518382015260200161069c565b50505050905090810190601f1680156106e15780820380516001836020036101000a031916815260200191505b5097505050505050505060405180910390f35b34801561070057600080fd5b506101fe6004356116c2565b34801561071857600080fd5b5061049a6004356116df565b34801561073057600080fd5b50610483600160a060020a0360043516602435611714565b34801561075457600080fd5b5061044360043561186a565b34801561076c57600080fd5b50610781600160a060020a0360043516611894565b60408051600160a060020a0390981688526020880196909652868601949094526060860192909252608085015260a0840152151560c0830152519081900360e00190f35b3480156107d157600080fd5b506107e6600160a060020a03600435166118de565b604051808060200185815260200184815260200183151515158152602001828103825286818151815260200191508051906020019080838360005b83811015610839578181015183820152602001610821565b50505050905090810190601f1680156108665780820380516001836020036101000a031916815260200191505b509550505050505060405180910390f35b34801561088357600080fd5b5061049a600160a060020a03600435166119e3565b3480156108a457600080fd5b50610483611a16565b3480156108b957600080fd5b5061049a600160a060020a0360043516611a77565b3480156108da57600080fd5b50610483600160a060020a0360043516611a8e565b3480156108fb57600080fd5b50610483600160a060020a0360043516611c5a565b34801561091c57600080fd5b50610443611e28565b6102c0600160a060020a0360043516602435611e37565b34801561094857600080fd5b50610227611f70565b34801561095d57600080fd5b50610483600160a060020a0360043516611fd1565b34801561097e57600080fd5b50610483600160a060020a036004351660243515156120ab565b3480156109a457600080fd5b5061064c600160a060020a036004351661212f565b3480156109c557600080fd5b50604080516020601f60643560048181013592830184900484028501840190955281845261048394600160a060020a0381358116956024803590921695604435953695608494019181908401838280828437509497506121ae9650505050505050565b348015610a3457600080fd5b506102276004356121d6565b348015610a4c57600080fd5b506107e6600160a060020a036004351661228b565b348015610a6d57600080fd5b506101fe600160a060020a0360043581169060243516612431565b348015610a9457600080fd5b50610483600160a060020a036004351661245f565b348015610ab557600080fd5b50610483600160a060020a0360043516612593565b348015610ad657600080fd5b5060408051602060046024803582810135601f8101859004850286018501909652858552610483958335600160a060020a031695369560449491939091019190819084018382808284375050604080516020601f89358b018035918201839004830284018301909452808352979a99988101979196509182019450925082915084018382808284375094975050933594506125b69350505050565b600160e060020a03191660009081526020819052604090205460ff1690565b60058054604080516020601f6002600019610100600188161502019095169490940493840181900481028201810190925282815260609390929091830182828015610c1c5780601f10610bf157610100808354040283529160200191610c1c565b820191906000526020600020905b815481529060010190602001808311610bff57829003601f168201915b505050505090505b90565b336000908152601060205260408120600401548190606090819081908490819060ff161515610ca0576040805160e560020a62461bcd02815260206004820152601a60248201527f5265717569657265206d656469636f206175746f72697a61646f000000000000604482015290519081900360640190fd5b50600160a060020a038816600090815260116020526040902060060154339060ff161515610d06576040805160e560020a62461bcd0281526020600482015260136024820152600080516020613078833981519152604482015290519081900360640190fd5b600160a060020a0389166000908152601160205260409020600701548810610d78576040805160e560020a62461bcd02815260206004820152601760248201527f494420657870656469656e7465206e6f20657869737465000000000000000000604482015290519081900360640190fd5b600160a060020a0389166000818152601160209081526040918290206001015482513392810192909252818301939093526060810192909252608082018a90524260a083015260c0808352601a908301527f457870656469656e746520636f6e73756c7461646f20706f723a00000000000060e0830152517f5339eb04e5d0889cac8fd153fd54f34fce1a220fc98dda856c2a95d9a9b28b03918190036101000190a1600160a060020a0389166000908152601160205260409020600701805489908110610e4257fe5b60009182526020808320600690920290910154600160a060020a038c1683526011909152604090912060070180548a908110610e7a57fe5b6000918252602080832060016006909302019190910154600160a060020a038d811684526011909252604090922060070180549190921691908b908110610ebd57fe5b9060005260206000209060060201600201601160008d600160a060020a0316600160a060020a031681526020019081526020016000206007018b815481101515610f0357fe5b9060005260206000209060060201600301601160008e600160a060020a0316600160a060020a031681526020019081526020016000206007018c815481101515610f4957fe5b9060005260206000209060060201600401601160008f600160a060020a0316600160a060020a0316815260200190815260200160002060010154838054600181600116156101000203166002900480601f0160208091040260200160405190810160405280929190818152602001828054600181600116156101000203166002900480156110185780601f10610fed57610100808354040283529160200191611018565b820191906000526020600020905b815481529060010190602001808311610ffb57829003601f168201915b5050865460408051602060026001851615610100026000190190941693909304601f8101849004840282018401909252818152959950889450925084019050828280156110a65780601f1061107b576101008083540402835291602001916110a6565b820191906000526020600020905b81548152906001019060200180831161108957829003601f168201915b5050855460408051602060026001851615610100026000190190941693909304601f8101849004840282018401909252818152959850879450925084019050828280156111345780601f1061110957610100808354040283529160200191611134565b820191906000526020600020905b81548152906001019060200180831161111757829003601f168201915b50505050509150965096509650965096509650509295509295509295565b600090815260026020526040902054600160a060020a031690565b60006111788261186a565b9050600160a060020a03838116908216141561119357600080fd5b33600160a060020a03821614806111af57506111af8133612431565b15156111ba57600080fd5b6000828152600260205260408082208054600160a060020a031916600160a060020a0387811691821790925591518593918516917f8c5be1e5ebec7d5bd14f71427d1e84f3dd0314c0f7b2291e5b200ac8c7c3b92591a4505050565b60095490565b7f01ffc9a70000000000000000000000000000000000000000000000000000000081565b61124a3382612991565b151561125557600080fd5b600160a060020a038316151561126a57600080fd5b600160a060020a038216151561127f57600080fd5b61128983826129f0565b6112938382612a54565b61129d8282612b5b565b8082600160a060020a031684600160a060020a03167fddf252ad1be2c89b69c2b068fc378daa952ba7f163c4a11628f55a4df523b3ef60405160405180910390a4505050565b600f54600160a060020a031681565b60006112fd836119e3565b821061130857600080fd5b600160a060020a038316600090815260076020526040902080548390811061132c57fe5b9060005260206000200154905092915050565b600f543390600160a060020a03168114156113a4576040805160e560020a62461bcd02815260206004820152601060248201527f4164647265737320696e76616c69646100000000000000000000000000000000604482015290519081900360640190fd5b600160a060020a038116600090815260106020526040902060040154610100900460ff161561141d576040805160e560020a62461bcd02815260206004820152601060248201527f4d656469636f2079612065786973746500000000000000000000000000000000604482015290519081900360640190fd5b600160a060020a03811660008181526010602090815260409091208054600160a060020a0319169092178255835161145b9260010191850190612f7f565b50600160a060020a03166000908152601060205260409020426002820155600401805461ffff191661010017905550565b600f54600160a060020a031633146114dc576040805160e560020a62461bcd0281526020600482015260166024820152600080516020613098833981519152604482015290519081900360640190fd5b600160a060020a038216600090815260126020526040902060040154610100900460ff1615611555576040805160e560020a62461bcd02815260206004820152601560248201527f41736567757261646f7261207961206578697374650000000000000000000000604482015290519081900360640190fd5b600160a060020a03821660008181526012602090815260409091208054600160a060020a031916909217825582516115939260010191840190612f7f565b5050600160a060020a03166000908152601260205260409020426002820155600401805461ff001960ff1990911660011716610100179055565b6115e983838360206040519081016040528060008152506121ae565b505050565b6010602090815260009182526040918290208054600180830180548651600261010094831615949094026000190190911692909204601f8101869004860283018601909652858252600160a060020a039092169492939092908301828280156116985780601f1061166d57610100808354040283529160200191611698565b820191906000526020600020905b81548152906001019060200180831161167b57829003601f168201915b50505050600283015460038401546004909401549293909290915060ff8082169161010090041686565b600090815260016020526040902054600160a060020a0316151590565b60006116e9611216565b82106116f457600080fd5b600980548390811061170257fe5b90600052602060002001549050919050565b600f54600160a060020a03163314611764576040805160e560020a62461bcd0281526020600482015260166024820152600080516020613098833981519152604482015290519081900360640190fd5b600160a060020a03821660009081526011602052604090206006015460ff1615156117c7576040805160e560020a62461bcd0281526020600482015260136024820152600080516020613078833981519152604482015290519081900360640190fd5b60028110611845576040805160e560020a62461bcd02815260206004820152602a60248201527f45737461646f73207065726d697469646f733a20303d6465736170657265636960448201527f646f2c20313d616c746100000000000000000000000000000000000000000000606482015290519081900360840190fd5b600160a060020a03909116600090815260116020526040902042600382015560050155565b600081815260016020526040812054600160a060020a031680151561188e57600080fd5b92915050565b6011602052600090815260409020805460018201546002830154600384015460048501546005860154600690960154600160a060020a039095169593949293919290919060ff1687565b600f5460609060009081908190600160a060020a03163314611938576040805160e560020a62461bcd0281526020600482015260166024820152600080516020613098833981519152604482015290519081900360640190fd5b600160a060020a038516600090815260106020526040902060040154610100900460ff1615156119b2576040805160e560020a62461bcd02815260206004820152601060248201527f4d656469636f206e6f2065786973746500000000000000000000000000000000604482015290519081900360640190fd5b600160a060020a039094166000908152601060205260409020426003820155600401805460ff191690559193909290565b6000600160a060020a03821615156119fa57600080fd5b50600160a060020a031660009081526003602052604090205490565b600c54600160a060020a03163314611a2d57600080fd5b600c54604051600160a060020a03909116907ff8df31144d9c2f0f6b59d69b8b98abd5459d07f2742c4df920b25aae33c6482090600090a2600c8054600160a060020a0319169055565b600080611a82612ba4565b905061188e8382612bc4565b600f54600090600160a060020a03163314611ae1576040805160e560020a62461bcd0281526020600482015260166024820152600080516020613098833981519152604482015290519081900360640190fd5b50600f543390600160a060020a03168114611b46576040805160e560020a62461bcd02815260206004820152601f60248201527f536f6c6f2053616e69646164207075656465206465736175746f72697a617200604482015290519081900360640190fd5b600160a060020a03821660009081526010602052604090206004015460ff161515611bbb576040805160e560020a62461bcd02815260206004820181905260248201527f4d656469636f20796120657374616261206465736175746f72697a61646f2021604482015290519081900360640190fd5b600160a060020a038216600090815260106020526040902060040154610100900460ff161515611c35576040805160e560020a62461bcd02815260206004820152601360248201527f4d656469636f206e6f206578697374656e746500000000000000000000000000604482015290519081900360640190fd5b50600160a060020a03166000908152601060205260409020600401805460ff19169055565b600f54600090600160a060020a03163314611cad576040805160e560020a62461bcd0281526020600482015260166024820152600080516020613098833981519152604482015290519081900360640190fd5b50600f543390600160a060020a03168114611d12576040805160e560020a62461bcd02815260206004820152601c60248201527f536f6c6f2053616e69646164207075656465206175746f72697a617200000000604482015290519081900360640190fd5b600160a060020a03821660009081526010602052604090206004015460ff1615611d86576040805160e560020a62461bcd02815260206004820152601b60248201527f4d656469636f20796120657374616261206175746f72697a61646f0000000000604482015290519081900360640190fd5b600160a060020a038216600090815260106020526040902060040154610100900460ff161515611e00576040805160e560020a62461bcd02815260206004820152601360248201527f4d656469636f206e6f206578697374656e746500000000000000000000000000604482015290519081900360640190fd5b50600160a060020a03166000908152601060205260409020600401805460ff19166001179055565b600c54600160a060020a031681565b336000908152601260205260408120600401548190606090819081908490819060ff161515611eb0576040805160e560020a62461bcd02815260206004820152601f60248201527f52657175696572652061736567757261646f7261206175746f72697a61646100604482015290519081900360640190fd5b5033620f4240341015611f0d576040805160e560020a62461bcd02815260206004820152601160248201527f5061676f20696e737566696369656e7465000000000000000000000000000000604482015290519081900360640190fd5b600160a060020a03891660009081526011602052604090206006015460ff161515610d06576040805160e560020a62461bcd0281526020600482015260136024820152600080516020613078833981519152604482015290519081900360640190fd5b60068054604080516020601f6002600019610100600188161502019095169490940493840181900481028201810190925282815260609390929091830182828015610c1c5780601f10610bf157610100808354040283529160200191610c1c565b600f54600160a060020a03163314612021576040805160e560020a62461bcd0281526020600482015260166024820152600080516020613098833981519152604482015290519081900360640190fd5b600160a060020a03811660009081526011602052604090206006015460ff161515612084576040805160e560020a62461bcd0281526020600482015260136024820152600080516020613078833981519152604482015290519081900360640190fd5b600160a060020a031660009081526011602052604090204260038201556002600590910155565b600160a060020a0382163314156120c157600080fd5b336000818152600460209081526040808320600160a060020a03871680855290835292819020805460ff1916861515908117909155815190815290519293927f17307eab39ab6107e8899845ad3d59bd9653f200f220920489ca2b5937696c31929181900390910190a35050565b6012602090815260009182526040918290208054600180830180548651600261010094831615949094026000190190911692909204601f8101869004860283018601909652858252600160a060020a039092169492939092908301828280156116985780601f1061166d57610100808354040283529160200191611698565b6121b9848484611240565b6121c584848484612c13565b15156121d057600080fd5b50505050565b60606121e1826116c2565b15156121ec57600080fd5b6000828152600b602090815260409182902080548351601f60026000196101006001861615020190931692909204918201849004840281018401909452808452909183018282801561227f5780601f106122545761010080835404028352916020019161227f565b820191906000526020600020905b81548152906001019060200180831161226257829003601f168201915b50505050509050919050565b600f5460609060009081908190600160a060020a031633146122e5576040805160e560020a62461bcd0281526020600482015260166024820152600080516020613098833981519152604482015290519081900360640190fd5b600160a060020a038516600090815260106020526040902060040154610100900460ff16151561235f576040805160e560020a62461bcd02815260206004820152601060248201527f4d656469636f206e6f2065786973746500000000000000000000000000000000604482015290519081900360640190fd5b600160a060020a038516600090815260106020908152604091829020600280820154600383015460048401546001948501805488516101009782161597909702600019011694909404601f810187900487028601870190975286855292959194909360ff9093169291869183018282801561241b5780601f106123f05761010080835404028352916020019161241b565b820191906000526020600020905b8154815290600101906020018083116123fe57829003601f168201915b5050505050935093509350935093509193509193565b600160a060020a03918216600090815260046020908152604080832093909416825291909152205460ff1690565b600f54600160a060020a031633146124af576040805160e560020a62461bcd0281526020600482015260166024820152600080516020613098833981519152604482015290519081900360640190fd5b600160a060020a03811660009081526011602052604090206006015460ff1615612523576040805160e560020a62461bcd02815260206004820152601360248201527f436975646164616e6f2079612065786973746500000000000000000000000000604482015290519081900360640190fd5b600160a060020a03811660008181526011602052604090208054600160a060020a03191690911781554260028201556001600582018190556006909101805460ff1916909117905561257481611a77565b600160a060020a03909116600090815260116020526040902060010155565b600c54600160a060020a031633146125aa57600080fd5b6125b381612d80565b50565b6125be612ffd565b33600090815260106020526040812060040154819060ff16151561262c576040805160e560020a62461bcd02815260206004820152601a60248201527f5265717569657265206d656469636f206175746f72697a61646f000000000000604482015290519081900360640190fd5b600160a060020a03871660009081526011602052604090206006015460ff16151561268f576040805160e560020a62461bcd0281526020600482015260136024820152600080516020613078833981519152604482015290519081900360640190fd5b600160a060020a0387163314156126f0576040805160e560020a62461bcd02815260206004820152601e60248201527f4e6f207365207065726d697465206175746f646961676e6f7374696361720000604482015290519081900360640190fd5b600160a060020a038716600090815260116020526040902060050154600114612763576040805160e560020a62461bcd02815260206004820152601e60248201527f45737461646f20696e636f72726563746f20646520636975646164616e6f0000604482015290519081900360640190fd5b428352336020808501829052600091825260108152604091829020600190810180548451600293821615610100026000190190911692909204601f8101849004840283018401909452838252909290918301828280156128045780601f106127d957610100808354040283529160200191612804565b820191906000526020600020905b8154815290600101906020018083116127e757829003601f168201915b50505050506040848101918252606085018890526080850187905260a08501869052600160a060020a0389811660009081526011602090815292812060070180546001808201808455928452928590208951600690920201908155848901518184018054600160a060020a0319169190951617909355935180519194938893926128949260028501920190612f7f565b50606082015180516128b0916003840191602090910190612f7f565b50608082015180516128cc916004840191602090910190612f7f565b5060a091820151600590910155600160a060020a038a16600081815260116020908152604091829020600101548251339281019290925281830193909352606081018390529490930360808501819052429285019290925260c08085526019908501527f457870656469656e746520696e7365727461646f20706f723a0000000000000060e085015291519094509092507f5339eb04e5d0889cac8fd153fd54f34fce1a220fc98dda856c2a95d9a9b28b03918190036101000190a150505050505050565b60008061299d8361186a565b905080600160a060020a031684600160a060020a031614806129d8575083600160a060020a03166129cd84611152565b600160a060020a0316145b806129e857506129e88185612431565b949350505050565b81600160a060020a0316612a038261186a565b600160a060020a031614612a1657600080fd5b600081815260026020526040902054600160a060020a031615612a505760008181526002602052604090208054600160a060020a03191690555b5050565b6000806000612a638585612df1565b600084815260086020908152604080832054600160a060020a0389168452600790925290912054909350612a9e90600163ffffffff612e7a16565b600160a060020a038616600090815260076020526040902080549193509083908110612ac657fe5b90600052602060002001549050806007600087600160a060020a0316600160a060020a0316815260200190815260200160002084815481101515612b0657fe5b6000918252602080832090910192909255600160a060020a0387168152600790915260409020805490612b3d90600019830161303d565b50600093845260086020526040808520859055908452909220555050565b6000612b678383612e8c565b50600160a060020a039091166000908152600760209081526040808320805460018101825590845282842081018590559383526008909152902055565b6000612bbf6001612bb3611216565b9063ffffffff612f0f16565b905090565b612bce8282612f1c565b600980546000838152600a60205260408120829055600182018355919091527f6e1540171b6c0c960b71a7020d9f60077f6af931a8bbf590da0223dacf75c7af015550565b600080612c2885600160a060020a0316612f77565b1515612c375760019150612d77565b6040517f150b7a020000000000000000000000000000000000000000000000000000000081523360048201818152600160a060020a03898116602485015260448401889052608060648501908152875160848601528751918a169463150b7a0294938c938b938b93909160a490910190602085019080838360005b83811015612cca578181015183820152602001612cb2565b50505050905090810190601f168015612cf75780820380516001836020036101000a031916815260200191505b5095505050505050602060405180830381600087803b158015612d1957600080fd5b505af1158015612d2d573d6000803e3d6000fd5b505050506040513d6020811015612d4357600080fd5b5051600160e060020a031981167f150b7a020000000000000000000000000000000000000000000000000000000014925090505b50949350505050565b600160a060020a0381161515612d9557600080fd5b600c54604051600160a060020a038084169216907f8be0079c531659141344cd1fd0a4f28419497f9722a3daafe3b4186f6b6457e090600090a3600c8054600160a060020a031916600160a060020a0392909216919091179055565b81600160a060020a0316612e048261186a565b600160a060020a031614612e1757600080fd5b600160a060020a038216600090815260036020526040902054612e4190600163ffffffff612e7a16565b600160a060020a039092166000908152600360209081526040808320949094559181526001909152208054600160a060020a0319169055565b600082821115612e8657fe5b50900390565b600081815260016020526040902054600160a060020a031615612eae57600080fd5b60008181526001602081815260408084208054600160a060020a031916600160a060020a0388169081179091558452600390915290912054612eef91612f0f565b600160a060020a0390921660009081526003602052604090209190915550565b8181018281101561188e57fe5b600160a060020a0382161515612f3157600080fd5b612f3b8282612b5b565b6040518190600160a060020a038416906000907fddf252ad1be2c89b69c2b068fc378daa952ba7f163c4a11628f55a4df523b3ef908290a45050565b6000903b1190565b828054600181600116156101000203166002900490600052602060002090601f016020900481019282601f10612fc057805160ff1916838001178555612fed565b82800160010185558215612fed579182015b82811115612fed578251825591602001919060010190612fd2565b50612ff992915061305d565b5090565b60c060405190810160405280600081526020016000600160a060020a03168152602001606081526020016060815260200160608152602001600081525090565b8154818355818111156115e9576000838152602090206115e99181019083015b610c2491905b80821115612ff957600081556001016130635600436975646164616e6f206e6f20657869737465000000000000000000000000005265737472696e677569646120612053616e6964616400000000000000000000a165627a7a72305820b7e75fb21f97ce5a8fe4cf9012f7d18906224a77dfba45909abbe96a4c2e913d0029",
  "source": "pragma solidity 0.4.25;\nimport \"./TokenSSID.sol\";\n\ncontract SistemaSanitario is TokenSSID {\n    string sanidad_nombre;\n    string sanidad_pais;\n    address public sanidad_addr;\n\n    struct Medico {\n        address medico;\n        string especialidad;\n        uint fechaalta;\n        uint fechabaja;\n        bool autorizado;\n        bool isExist;\n    }\n        \n    struct Expediente{\n        uint fecha;\n        address medico;\n        string especialidad;\n        string dolencia;\n        string tratamiento;\n        uint duracion;\n    }\n        \n    struct Ciudadano {\n        address ciudadano;\n        uint SSID;\n        uint fechaalta;\n        uint fechabaja;\n        uint fechareactivacion;\n        uint estado;\n        bool isExist;\n        Expediente[] expediente;\n    }\n    struct Aseguradora {\n        address seguro;\n        string especialidad;\n        uint fechaalta;\n        uint fechabaja;\n        bool autorizado;\n        bool isExist;\n    }\n    mapping(address => Medico) public medicos;\n    mapping(address => Ciudadano) public ciudadanos;\n    mapping(address => Aseguradora) public aseguradoras;\n\n    modifier restrictedBySanidad() {\n        require(sanidad_addr == msg.sender, \"Restringuida a Sanidad\");\n        _;\n    }\n    modifier restrictedByMedicoAutorizado() {\n        require(medicos[msg.sender].autorizado, \"Requiere medico autorizado\");\n        _;\n    }\n   modifier restrictedByAseguradoraAutorizada() {\n        require(aseguradoras[msg.sender].autorizado, \"Requiere aseguradora autorizada\");\n        _;\n    }\n    // event utilizado para dejar en el log los datos de los expedientes insertados y consultados\n    event eventExpediente(\n        string _expediente,\n        address _addressMedico,\n        address _addressCiudadano,\n        uint _SSID,\n        uint _numExpediente,\n        uint _fecha\n        );\n    \n    constructor(string _nombre, string _pais) public {\n        sanidad_nombre = _nombre;\n        sanidad_pais = _pais;\n        sanidad_addr = msg.sender;\n    }\n    \n    //Los medicos se dan de alta\n    function altaMedico (string _especialidad)  public {\n        address aux;\n        aux = msg.sender;\n        require(aux != sanidad_addr, \"Address invalida\");\n        require(!medicos[aux].isExist, \"Medico ya existe\");\n\n        medicos[aux].medico = aux;\n        medicos[aux].especialidad = _especialidad;\n        medicos[aux].fechaalta = now;\n        medicos[aux].autorizado = false;\n        medicos[aux].isExist = true;\n    }\n    // Solo Sanidad puede consultar medico\n    function consultaMedico(address _adrMedico) public view restrictedBySanidad returns (string, uint, uint, bool){\n        require(medicos[_adrMedico].isExist, \"Medico no existe\");\n        return (\n            medicos[_adrMedico].especialidad,\n            medicos[_adrMedico].fechaalta,\n            medicos[_adrMedico].fechabaja,\n            medicos[_adrMedico].autorizado\n        );\n    }\n    // Solo Sanidad puede dar de baja un medico, queda desautorizado\n    function bajaMedico(address _adrMedico) public restrictedBySanidad returns (string, uint, uint, bool){\n        require(medicos[_adrMedico].isExist, \"Medico no existe\");\n        medicos[_adrMedico].fechabaja = now;\n        medicos[_adrMedico].autorizado = false;\n    }\n    // Solo Sanidad puede autorizar a un medico\n    function autorizarMedico (address _adrMedico)  public restrictedBySanidad {\n        address aux;\n        aux = msg.sender;\n        require(aux == sanidad_addr, \"Solo Sanidad puede autorizar\");\n        require(!medicos[_adrMedico].autorizado, \"Medico ya estaba autorizado\");\n        require(medicos[_adrMedico].isExist, \"Medico no existente\");\n        medicos[_adrMedico].autorizado = true;\n    }\n    // Solo Sanidad puede desautorizar a un medico\n    function desautorizarMedico (address _adrMedico)  public restrictedBySanidad {\n        address aux;\n        aux = msg.sender;\n        require(aux == sanidad_addr, \"Solo Sanidad puede desautorizar\");\n        require(medicos[_adrMedico].autorizado, \"Medico ya estaba desautorizado !\");\n        require(medicos[_adrMedico].isExist, \"Medico no existente\");\n        medicos[_adrMedico].autorizado = false;\n    }\n    // Solo Sanidad puede dar de alta un ciudadano\n    function altaCiudadano (address _adrCiudadano)  public restrictedBySanidad {\n        require(!ciudadanos[_adrCiudadano].isExist,\"Ciudadano ya existe\");\n        ciudadanos[_adrCiudadano].ciudadano = _adrCiudadano;\n        ciudadanos[_adrCiudadano].fechaalta = now;\n        ciudadanos[_adrCiudadano].estado = 1; // 1 Alta\n        ciudadanos[_adrCiudadano].isExist = true;\n        ciudadanos[_adrCiudadano].SSID = mintTo(_adrCiudadano);\n    }\n\n    // Solo Sanidad puede dar de baja un ciudadano\n    function bajaCiudadano (address _adrCiudadano)  public restrictedBySanidad {\n        require(ciudadanos[_adrCiudadano].isExist, \"Ciudadano no existe\");\n        ciudadanos[_adrCiudadano].fechabaja = now;\n        ciudadanos[_adrCiudadano].estado = 2; // 2 Baja\n    }\n    // Solo Sanidad puede modificar el estado un ciudadano\n    // El ciudadano debe de existir\n    function modifCiudadano (address _adrCiudadano, uint _estado)  public restrictedBySanidad {\n        require(ciudadanos[_adrCiudadano].isExist, \"Ciudadano no existe\");\n        require(_estado <2, \"Estados permitidos: 0=desaperecido, 1=alta\");\n        ciudadanos[_adrCiudadano].fechabaja = now;\n        ciudadanos[_adrCiudadano].estado = _estado; // 2 Baja\n    }\n\n    // Solo Sanidad puede dar de alta una Aseguradora\n    function altaAseguradora (address _adrAseguradora, string _especialidad)  public restrictedBySanidad {\n        require(!aseguradoras[_adrAseguradora].isExist,\"Aseguradora ya existe\");\n        aseguradoras[_adrAseguradora].seguro = _adrAseguradora;\n        aseguradoras[_adrAseguradora].especialidad = _especialidad;\n        aseguradoras[_adrAseguradora].fechaalta = now;\n        aseguradoras[_adrAseguradora].autorizado = true; \n        aseguradoras[_adrAseguradora].isExist = true;\n    }\n    // Solo un medico autorizado por Sanidad puede insertar un expediente\n    // Un medico no se puede autodiagnosticar\n    // El ciudadano debe de estar en estado = 1 (alta)\n    function insertExpediente (address _adrCiudadano,string _dolencia,string _tratamiento,uint _duracion) public restrictedByMedicoAutorizado{\n        Expediente memory aux_Expediente;\n        uint _IDexpediente;\n        uint _SSID;\n        require(ciudadanos[_adrCiudadano].isExist, \"Ciudadano no existe\");\n        require(_adrCiudadano != msg.sender, \"No se permite autodiagnosticar\");\n        require(ciudadanos[_adrCiudadano].estado == 1, \"Estado incorrecto de ciudadano\");\n        aux_Expediente.fecha = now;\n        aux_Expediente.medico = msg.sender;\n        aux_Expediente.especialidad = medicos[msg.sender].especialidad;\n        aux_Expediente.dolencia = _dolencia;\n        aux_Expediente.tratamiento = _tratamiento;\n        aux_Expediente.duracion = _duracion;\n        _IDexpediente = ciudadanos[_adrCiudadano].expediente.push(aux_Expediente) - 1;\n        _SSID = ciudadanos[_adrCiudadano].SSID;\n\n        emit eventExpediente(\n            \"Expediente insertado por:\",\n            msg.sender,\n            _adrCiudadano,\n            _SSID,\n            _IDexpediente,\n            now\n        );\n    }\n\n    // Solo un medico autorizado por Sanidad puede consultar un expediente\n     function consultaExpediente (address _adrCiudadano, uint _IDexpediente)  public restrictedByMedicoAutorizado returns(uint,address,string,string,string,uint) {\n        address aux_medico;\n        aux_medico = msg.sender;\n        require(ciudadanos[_adrCiudadano].isExist, \"Ciudadano no existe\");\n        require(ciudadanos[_adrCiudadano].expediente.length > _IDexpediente, \"ID expediente no existe\");\n     \n        emit eventExpediente(\n            \"Expediente consultado por:\",\n            msg.sender,\n            _adrCiudadano,\n            ciudadanos[_adrCiudadano].SSID,\n            _IDexpediente,\n            now\n        );\n        return(\n            ciudadanos[_adrCiudadano].expediente[_IDexpediente].fecha,\n            ciudadanos[_adrCiudadano].expediente[_IDexpediente].medico,\n            ciudadanos[_adrCiudadano].expediente[_IDexpediente].especialidad,\n            ciudadanos[_adrCiudadano].expediente[_IDexpediente].dolencia,\n            ciudadanos[_adrCiudadano].expediente[_IDexpediente].tratamiento,\n            ciudadanos[_adrCiudadano].SSID\n            );\n    }\n    // Solo un medico autorizado por Sanidad puede consultar un expediente\n     function consultaExpedienteAseguradora (address _adrCiudadano, uint _IDexpediente)  \n        public payable restrictedByAseguradoraAutorizada returns(uint,address,string,string,string,uint) {\n        address aux_aseguradora;\n        aux_aseguradora = msg.sender;\n        require(msg.value >= 1000000, \"Pago insuficiente\");\n        require(ciudadanos[_adrCiudadano].isExist, \"Ciudadano no existe\");\n        require(ciudadanos[_adrCiudadano].expediente.length > _IDexpediente, \"ID expediente no existe\");\n     \n        emit eventExpediente(\n            \"Expediente consultado por:\",\n            msg.sender,\n            _adrCiudadano,\n            ciudadanos[_adrCiudadano].SSID,\n            _IDexpediente,\n            now\n        );\n        return(\n            ciudadanos[_adrCiudadano].expediente[_IDexpediente].fecha,\n            ciudadanos[_adrCiudadano].expediente[_IDexpediente].medico,\n            ciudadanos[_adrCiudadano].expediente[_IDexpediente].especialidad,\n            ciudadanos[_adrCiudadano].expediente[_IDexpediente].dolencia,\n            ciudadanos[_adrCiudadano].expediente[_IDexpediente].tratamiento,\n            ciudadanos[_adrCiudadano].SSID\n            );\n    }\n} ",
  "sourcePath": "/Users/jordimorreres/repos/SSID/contracts/SistemaSanitario.sol",
  "compiler": {
    "name": "solc",
    "version": "0.4.25+commit.59dbf8f1.Emscripten.clang"
  },
  "schemaVersion": "3.0.11",
  "updatedAt": "2019-06-23T09:30:19.518Z",
  "devdoc": {
    "methods": {
      "approve(address,uint256)": {
        "details": "Approves another address to transfer the given token ID The zero address indicates there is no approved address. There can only be one approved address per token at a given time. Can only be called by the token owner or an approved operator.",
        "params": {
          "_to": "address to be approved for the given token ID",
          "_tokenId": "uint256 ID of the token to be approved"
        }
      },
      "balanceOf(address)": {
        "details": "Gets the balance of the specified address",
        "params": {
          "_owner": "address to query the balance of"
        },
        "return": "uint256 representing the amount owned by the passed address"
      },
      "exists(uint256)": {
        "details": "Returns whether the specified token exists",
        "params": {
          "_tokenId": "uint256 ID of the token to query the existence of"
        },
        "return": "whether the token exists"
      },
      "getApproved(uint256)": {
        "details": "Gets the approved address for a token ID, or zero if no address set",
        "params": {
          "_tokenId": "uint256 ID of the token to query the approval of"
        },
        "return": "address currently approved for the given token ID"
      },
      "isApprovedForAll(address,address)": {
        "details": "Tells whether an operator is approved by a given owner",
        "params": {
          "_operator": "operator address which you want to query the approval of",
          "_owner": "owner address which you want to query the approval of"
        },
        "return": "bool whether the given operator is approved by the given owner"
      },
      "name()": {
        "details": "Gets the token name",
        "return": "string representing the token name"
      },
      "ownerOf(uint256)": {
        "details": "Gets the owner of the specified token ID",
        "params": {
          "_tokenId": "uint256 ID of the token to query the owner of"
        },
        "return": "owner address currently marked as the owner of the given token ID"
      },
      "renounceOwnership()": {
        "details": "Allows the current owner to relinquish control of the contract."
      },
      "safeTransferFrom(address,address,uint256)": {
        "details": "Safely transfers the ownership of a given token ID to another address If the target address is a contract, it must implement `onERC721Received`, which is called upon a safe transfer, and return the magic value `bytes4(keccak256(\"onERC721Received(address,address,uint256,bytes)\"))`; otherwise, the transfer is reverted.   * Requires the msg sender to be the owner, approved, or operator",
        "params": {
          "_from": "current owner of the token",
          "_to": "address to receive the ownership of the given token ID",
          "_tokenId": "uint256 ID of the token to be transferred"
        }
      },
      "safeTransferFrom(address,address,uint256,bytes)": {
        "details": "Safely transfers the ownership of a given token ID to another address If the target address is a contract, it must implement `onERC721Received`, which is called upon a safe transfer, and return the magic value `bytes4(keccak256(\"onERC721Received(address,address,uint256,bytes)\"))`; otherwise, the transfer is reverted. Requires the msg sender to be the owner, approved, or operator",
        "params": {
          "_data": "bytes data to send along with a safe transfer check",
          "_from": "current owner of the token",
          "_to": "address to receive the ownership of the given token ID",
          "_tokenId": "uint256 ID of the token to be transferred"
        }
      },
      "setApprovalForAll(address,bool)": {
        "details": "Sets or unsets the approval of a given operator An operator is allowed to transfer all tokens of the sender on their behalf",
        "params": {
          "_approved": "representing the status of the approval to be set",
          "_to": "operator address to set the approval"
        }
      },
      "supportsInterface(bytes4)": {
        "details": "implement supportsInterface(bytes4) using a lookup table"
      },
      "symbol()": {
        "details": "Gets the token symbol",
        "return": "string representing the token symbol"
      },
      "tokenByIndex(uint256)": {
        "details": "Gets the token ID at a given index of all the tokens in this contract Reverts if the index is greater or equal to the total number of tokens",
        "params": {
          "_index": "uint256 representing the index to be accessed of the tokens list"
        },
        "return": "uint256 token ID at the given index of the tokens list"
      },
      "tokenOfOwnerByIndex(address,uint256)": {
        "details": "Gets the token ID at a given index of the tokens list of the requested owner",
        "params": {
          "_index": "uint256 representing the index to be accessed of the requested tokens list",
          "_owner": "address owning the tokens list to be accessed"
        },
        "return": "uint256 token ID at the given index of the tokens list owned by the requested address"
      },
      "tokenURI(uint256)": {
        "details": "Returns an URI for a given token ID Throws if the token ID does not exist. May return an empty string.",
        "params": {
          "_tokenId": "uint256 ID of the token to query"
        }
      },
      "totalSupply()": {
        "details": "Gets the total amount of tokens stored by the contract",
        "return": "uint256 representing the total amount of tokens"
      },
      "transferFrom(address,address,uint256)": {
        "details": "Transfers the ownership of a given token ID to another address Usage of this method is discouraged, use `safeTransferFrom` whenever possible Requires the msg sender to be the owner, approved, or operator",
        "params": {
          "_from": "current owner of the token",
          "_to": "address to receive the ownership of the given token ID",
          "_tokenId": "uint256 ID of the token to be transferred"
        }
      },
      "transferOwnership(address)": {
        "details": "Allows the current owner to transfer control of the contract to a newOwner.",
        "params": {
          "_newOwner": "The address to transfer ownership to."
        }
      }
    }
  },
  "userdoc": {
    "methods": {
      "mintTo(address)": {
        "notice": "Custom accessor to create a unique token"
      },
      "renounceOwnership()": {
        "notice": "Renouncing to ownership will leave the contract without an owner. It will not be possible to call the functions with the `onlyOwner` modifier anymore."
      }
    }
  }
}