{
  "contractName": "TokenSSID",
  "abi": [
    {
      "constant": true,
      "inputs": [
        {
          "name": "_interfaceId",
          "type": "bytes4"
        }
      ],
      "name": "supportsInterface",
      "outputs": [
        {
          "name": "",
          "type": "bool"
        }
      ],
      "payable": false,
      "stateMutability": "view",
      "type": "function"
    },
    {
      "constant": true,
      "inputs": [],
      "name": "name",
      "outputs": [
        {
          "name": "",
          "type": "string"
        }
      ],
      "payable": false,
      "stateMutability": "view",
      "type": "function"
    },
    {
      "constant": true,
      "inputs": [
        {
          "name": "_tokenId",
          "type": "uint256"
        }
      ],
      "name": "getApproved",
      "outputs": [
        {
          "name": "",
          "type": "address"
        }
      ],
      "payable": false,
      "stateMutability": "view",
      "type": "function"
    },
    {
      "constant": false,
      "inputs": [
        {
          "name": "_to",
          "type": "address"
        },
        {
          "name": "_tokenId",
          "type": "uint256"
        }
      ],
      "name": "approve",
      "outputs": [],
      "payable": false,
      "stateMutability": "nonpayable",
      "type": "function"
    },
    {
      "constant": true,
      "inputs": [],
      "name": "totalSupply",
      "outputs": [
        {
          "name": "",
          "type": "uint256"
        }
      ],
      "payable": false,
      "stateMutability": "view",
      "type": "function"
    },
    {
      "constant": true,
      "inputs": [],
      "name": "InterfaceId_ERC165",
      "outputs": [
        {
          "name": "",
          "type": "bytes4"
        }
      ],
      "payable": false,
      "stateMutability": "view",
      "type": "function"
    },
    {
      "constant": false,
      "inputs": [
        {
          "name": "_from",
          "type": "address"
        },
        {
          "name": "_to",
          "type": "address"
        },
        {
          "name": "_tokenId",
          "type": "uint256"
        }
      ],
      "name": "transferFrom",
      "outputs": [],
      "payable": false,
      "stateMutability": "nonpayable",
      "type": "function"
    },
    {
      "constant": true,
      "inputs": [
        {
          "name": "_owner",
          "type": "address"
        },
        {
          "name": "_index",
          "type": "uint256"
        }
      ],
      "name": "tokenOfOwnerByIndex",
      "outputs": [
        {
          "name": "",
          "type": "uint256"
        }
      ],
      "payable": false,
      "stateMutability": "view",
      "type": "function"
    },
    {
      "constant": false,
      "inputs": [
        {
          "name": "_from",
          "type": "address"
        },
        {
          "name": "_to",
          "type": "address"
        },
        {
          "name": "_tokenId",
          "type": "uint256"
        }
      ],
      "name": "safeTransferFrom",
      "outputs": [],
      "payable": false,
      "stateMutability": "nonpayable",
      "type": "function"
    },
    {
      "constant": true,
      "inputs": [
        {
          "name": "_tokenId",
          "type": "uint256"
        }
      ],
      "name": "exists",
      "outputs": [
        {
          "name": "",
          "type": "bool"
        }
      ],
      "payable": false,
      "stateMutability": "view",
      "type": "function"
    },
    {
      "constant": true,
      "inputs": [
        {
          "name": "_index",
          "type": "uint256"
        }
      ],
      "name": "tokenByIndex",
      "outputs": [
        {
          "name": "",
          "type": "uint256"
        }
      ],
      "payable": false,
      "stateMutability": "view",
      "type": "function"
    },
    {
      "constant": true,
      "inputs": [
        {
          "name": "_tokenId",
          "type": "uint256"
        }
      ],
      "name": "ownerOf",
      "outputs": [
        {
          "name": "",
          "type": "address"
        }
      ],
      "payable": false,
      "stateMutability": "view",
      "type": "function"
    },
    {
      "constant": true,
      "inputs": [
        {
          "name": "_owner",
          "type": "address"
        }
      ],
      "name": "balanceOf",
      "outputs": [
        {
          "name": "",
          "type": "uint256"
        }
      ],
      "payable": false,
      "stateMutability": "view",
      "type": "function"
    },
    {
      "constant": false,
      "inputs": [],
      "name": "renounceOwnership",
      "outputs": [],
      "payable": false,
      "stateMutability": "nonpayable",
      "type": "function"
    },
    {
      "constant": true,
      "inputs": [],
      "name": "owner",
      "outputs": [
        {
          "name": "",
          "type": "address"
        }
      ],
      "payable": false,
      "stateMutability": "view",
      "type": "function"
    },
    {
      "constant": true,
      "inputs": [],
      "name": "symbol",
      "outputs": [
        {
          "name": "",
          "type": "string"
        }
      ],
      "payable": false,
      "stateMutability": "view",
      "type": "function"
    },
    {
      "constant": false,
      "inputs": [
        {
          "name": "_to",
          "type": "address"
        },
        {
          "name": "_approved",
          "type": "bool"
        }
      ],
      "name": "setApprovalForAll",
      "outputs": [],
      "payable": false,
      "stateMutability": "nonpayable",
      "type": "function"
    },
    {
      "constant": false,
      "inputs": [
        {
          "name": "_from",
          "type": "address"
        },
        {
          "name": "_to",
          "type": "address"
        },
        {
          "name": "_tokenId",
          "type": "uint256"
        },
        {
          "name": "_data",
          "type": "bytes"
        }
      ],
      "name": "safeTransferFrom",
      "outputs": [],
      "payable": false,
      "stateMutability": "nonpayable",
      "type": "function"
    },
    {
      "constant": true,
      "inputs": [
        {
          "name": "_tokenId",
          "type": "uint256"
        }
      ],
      "name": "tokenURI",
      "outputs": [
        {
          "name": "",
          "type": "string"
        }
      ],
      "payable": false,
      "stateMutability": "view",
      "type": "function"
    },
    {
      "constant": true,
      "inputs": [
        {
          "name": "_owner",
          "type": "address"
        },
        {
          "name": "_operator",
          "type": "address"
        }
      ],
      "name": "isApprovedForAll",
      "outputs": [
        {
          "name": "",
          "type": "bool"
        }
      ],
      "payable": false,
      "stateMutability": "view",
      "type": "function"
    },
    {
      "constant": false,
      "inputs": [
        {
          "name": "_newOwner",
          "type": "address"
        }
      ],
      "name": "transferOwnership",
      "outputs": [],
      "payable": false,
      "stateMutability": "nonpayable",
      "type": "function"
    },
    {
      "inputs": [],
      "payable": false,
      "stateMutability": "nonpayable",
      "type": "constructor"
    },
    {
      "anonymous": false,
      "inputs": [
        {
          "indexed": true,
          "name": "previousOwner",
          "type": "address"
        }
      ],
      "name": "OwnershipRenounced",
      "type": "event"
    },
    {
      "anonymous": false,
      "inputs": [
        {
          "indexed": true,
          "name": "previousOwner",
          "type": "address"
        },
        {
          "indexed": true,
          "name": "newOwner",
          "type": "address"
        }
      ],
      "name": "OwnershipTransferred",
      "type": "event"
    },
    {
      "anonymous": false,
      "inputs": [
        {
          "indexed": true,
          "name": "_from",
          "type": "address"
        },
        {
          "indexed": true,
          "name": "_to",
          "type": "address"
        },
        {
          "indexed": true,
          "name": "_tokenId",
          "type": "uint256"
        }
      ],
      "name": "Transfer",
      "type": "event"
    },
    {
      "anonymous": false,
      "inputs": [
        {
          "indexed": true,
          "name": "_owner",
          "type": "address"
        },
        {
          "indexed": true,
          "name": "_approved",
          "type": "address"
        },
        {
          "indexed": true,
          "name": "_tokenId",
          "type": "uint256"
        }
      ],
      "name": "Approval",
      "type": "event"
    },
    {
      "anonymous": false,
      "inputs": [
        {
          "indexed": true,
          "name": "_owner",
          "type": "address"
        },
        {
          "indexed": true,
          "name": "_operator",
          "type": "address"
        },
        {
          "indexed": false,
          "name": "_approved",
          "type": "bool"
        }
      ],
      "name": "ApprovalForAll",
      "type": "event"
    },
    {
      "constant": false,
      "inputs": [
        {
          "name": "_to",
          "type": "address"
        }
      ],
      "name": "mintTo",
      "outputs": [
        {
          "name": "",
          "type": "uint256"
        }
      ],
      "payable": false,
      "stateMutability": "nonpayable",
      "type": "function"
    }
  ],
  "bytecode": "0x60806040523480156200001157600080fd5b50604080518082018252601081527f53697374656d6153616e69746172696f000000000000000000000000000000006020808301919091528251808401909352600483527f53534944000000000000000000000000000000000000000000000000000000009083015290620000af7f01ffc9a700000000000000000000000000000000000000000000000000000000640100000000620001c5810204565b620000e37f80ac58cd00000000000000000000000000000000000000000000000000000000640100000000620001c5810204565b620001177f4f558e7900000000000000000000000000000000000000000000000000000000640100000000620001c5810204565b81516200012c90600590602085019062000232565b5080516200014290600690602084019062000232565b50620001777f780e9d6300000000000000000000000000000000000000000000000000000000640100000000620001c5810204565b620001ab7f5b5e139f00000000000000000000000000000000000000000000000000000000640100000000620001c5810204565b5050600c8054600160a060020a03191633179055620002d7565b7fffffffff000000000000000000000000000000000000000000000000000000008082161415620001f557600080fd5b7fffffffff00000000000000000000000000000000000000000000000000000000166000908152602081905260409020805460ff19166001179055565b828054600181600116156101000203166002900490600052602060002090601f016020900481019282601f106200027557805160ff1916838001178555620002a5565b82800160010185558215620002a5579182015b82811115620002a557825182559160200191906001019062000288565b50620002b3929150620002b7565b5090565b620002d491905b80821115620002b35760008155600101620002be565b90565b61117880620002e76000396000f3006080604052600436106101275763ffffffff7c010000000000000000000000000000000000000000000000000000000060003504166301ffc9a7811461012c57806306fdde0314610162578063081812fc146101ec578063095ea7b31461022057806318160ddd1461024657806319fa8f501461026d57806323b872dd1461029f5780632f745c59146102c957806342842e0e146102ed5780634f558e79146103175780634f6ccce71461032f5780636352211e1461034757806370a082311461035f578063715018a614610380578063755edd17146103955780638da5cb5b146103b657806395d89b41146103cb578063a22cb465146103e0578063b88d4fde14610406578063c87b56dd14610475578063e985e9c51461048d578063f2fde38b146104b4575b600080fd5b34801561013857600080fd5b5061014e600160e060020a0319600435166104d5565b604080519115158252519081900360200190f35b34801561016e57600080fd5b506101776104f4565b6040805160208082528351818301528351919283929083019185019080838360005b838110156101b1578181015183820152602001610199565b50505050905090810190601f1680156101de5780820380516001836020036101000a031916815260200191505b509250505060405180910390f35b3480156101f857600080fd5b5061020460043561058b565b60408051600160a060020a039092168252519081900360200190f35b34801561022c57600080fd5b50610244600160a060020a03600435166024356105a6565b005b34801561025257600080fd5b5061025b61065c565b60408051918252519081900360200190f35b34801561027957600080fd5b50610282610662565b60408051600160e060020a03199092168252519081900360200190f35b3480156102ab57600080fd5b50610244600160a060020a0360043581169060243516604435610686565b3480156102d557600080fd5b5061025b600160a060020a0360043516602435610729565b3480156102f957600080fd5b50610244600160a060020a0360043581169060243516604435610776565b34801561032357600080fd5b5061014e600435610797565b34801561033b57600080fd5b5061025b6004356107b4565b34801561035357600080fd5b506102046004356107e9565b34801561036b57600080fd5b5061025b600160a060020a0360043516610813565b34801561038c57600080fd5b50610244610846565b3480156103a157600080fd5b5061025b600160a060020a03600435166108b4565b3480156103c257600080fd5b506102046108cb565b3480156103d757600080fd5b506101776108da565b3480156103ec57600080fd5b50610244600160a060020a0360043516602435151561093b565b34801561041257600080fd5b50604080516020601f60643560048181013592830184900484028501840190955281845261024494600160a060020a0381358116956024803590921695604435953695608494019181908401838280828437509497506109bf9650505050505050565b34801561048157600080fd5b506101776004356109e7565b34801561049957600080fd5b5061014e600160a060020a0360043581169060243516610a9c565b3480156104c057600080fd5b50610244600160a060020a0360043516610aca565b600160e060020a03191660009081526020819052604090205460ff1690565b60058054604080516020601f60026000196101006001881615020190951694909404938401819004810282018101909252828152606093909290918301828280156105805780601f1061055557610100808354040283529160200191610580565b820191906000526020600020905b81548152906001019060200180831161056357829003601f168201915b505050505090505b90565b600090815260026020526040902054600160a060020a031690565b60006105b1826107e9565b9050600160a060020a0383811690821614156105cc57600080fd5b33600160a060020a03821614806105e857506105e88133610a9c565b15156105f357600080fd5b600082815260026020526040808220805473ffffffffffffffffffffffffffffffffffffffff1916600160a060020a0387811691821790925591518593918516917f8c5be1e5ebec7d5bd14f71427d1e84f3dd0314c0f7b2291e5b200ac8c7c3b92591a4505050565b60095490565b7f01ffc9a70000000000000000000000000000000000000000000000000000000081565b6106903382610aed565b151561069b57600080fd5b600160a060020a03831615156106b057600080fd5b600160a060020a03821615156106c557600080fd5b6106cf8382610b4c565b6106d98382610bbd565b6106e38282610cc4565b8082600160a060020a031684600160a060020a03167fddf252ad1be2c89b69c2b068fc378daa952ba7f163c4a11628f55a4df523b3ef60405160405180910390a4505050565b600061073483610813565b821061073f57600080fd5b600160a060020a038316600090815260076020526040902080548390811061076357fe5b9060005260206000200154905092915050565b61079283838360206040519081016040528060008152506109bf565b505050565b600090815260016020526040902054600160a060020a0316151590565b60006107be61065c565b82106107c957600080fd5b60098054839081106107d757fe5b90600052602060002001549050919050565b600081815260016020526040812054600160a060020a031680151561080d57600080fd5b92915050565b6000600160a060020a038216151561082a57600080fd5b50600160a060020a031660009081526003602052604090205490565b600c54600160a060020a0316331461085d57600080fd5b600c54604051600160a060020a03909116907ff8df31144d9c2f0f6b59d69b8b98abd5459d07f2742c4df920b25aae33c6482090600090a2600c805473ffffffffffffffffffffffffffffffffffffffff19169055565b6000806108bf610d0d565b905061080d8382610d2d565b600c54600160a060020a031681565b60068054604080516020601f60026000196101006001881615020190951694909404938401819004810282018101909252828152606093909290918301828280156105805780601f1061055557610100808354040283529160200191610580565b600160a060020a03821633141561095157600080fd5b336000818152600460209081526040808320600160a060020a03871680855290835292819020805460ff1916861515908117909155815190815290519293927f17307eab39ab6107e8899845ad3d59bd9653f200f220920489ca2b5937696c31929181900390910190a35050565b6109ca848484610686565b6109d684848484610d7c565b15156109e157600080fd5b50505050565b60606109f282610797565b15156109fd57600080fd5b6000828152600b602090815260409182902080548351601f600260001961010060018616150201909316929092049182018490048402810184019094528084529091830182828015610a905780601f10610a6557610100808354040283529160200191610a90565b820191906000526020600020905b815481529060010190602001808311610a7357829003601f168201915b50505050509050919050565b600160a060020a03918216600090815260046020908152604080832093909416825291909152205460ff1690565b600c54600160a060020a03163314610ae157600080fd5b610aea81610ee9565b50565b600080610af9836107e9565b905080600160a060020a031684600160a060020a03161480610b34575083600160a060020a0316610b298461058b565b600160a060020a0316145b80610b445750610b448185610a9c565b949350505050565b81600160a060020a0316610b5f826107e9565b600160a060020a031614610b7257600080fd5b600081815260026020526040902054600160a060020a031615610bb9576000818152600260205260409020805473ffffffffffffffffffffffffffffffffffffffff191690555b5050565b6000806000610bcc8585610f67565b600084815260086020908152604080832054600160a060020a0389168452600790925290912054909350610c0790600163ffffffff610ffd16565b600160a060020a038616600090815260076020526040902080549193509083908110610c2f57fe5b90600052602060002001549050806007600087600160a060020a0316600160a060020a0316815260200190815260200160002084815481101515610c6f57fe5b6000918252602080832090910192909255600160a060020a0387168152600790915260409020805490610ca690600019830161110f565b50600093845260086020526040808520859055908452909220555050565b6000610cd0838361100f565b50600160a060020a039091166000908152600760209081526040808320805460018101825590845282842081018590559383526008909152902055565b6000610d286001610d1c61065c565b9063ffffffff61109f16565b905090565b610d3782826110ac565b600980546000838152600a60205260408120829055600182018355919091527f6e1540171b6c0c960b71a7020d9f60077f6af931a8bbf590da0223dacf75c7af015550565b600080610d9185600160a060020a0316611107565b1515610da05760019150610ee0565b6040517f150b7a020000000000000000000000000000000000000000000000000000000081523360048201818152600160a060020a03898116602485015260448401889052608060648501908152875160848601528751918a169463150b7a0294938c938b938b93909160a490910190602085019080838360005b83811015610e33578181015183820152602001610e1b565b50505050905090810190601f168015610e605780820380516001836020036101000a031916815260200191505b5095505050505050602060405180830381600087803b158015610e8257600080fd5b505af1158015610e96573d6000803e3d6000fd5b505050506040513d6020811015610eac57600080fd5b5051600160e060020a031981167f150b7a020000000000000000000000000000000000000000000000000000000014925090505b50949350505050565b600160a060020a0381161515610efe57600080fd5b600c54604051600160a060020a038084169216907f8be0079c531659141344cd1fd0a4f28419497f9722a3daafe3b4186f6b6457e090600090a3600c805473ffffffffffffffffffffffffffffffffffffffff1916600160a060020a0392909216919091179055565b81600160a060020a0316610f7a826107e9565b600160a060020a031614610f8d57600080fd5b600160a060020a038216600090815260036020526040902054610fb790600163ffffffff610ffd16565b600160a060020a03909216600090815260036020908152604080832094909455918152600190915220805473ffffffffffffffffffffffffffffffffffffffff19169055565b60008282111561100957fe5b50900390565b600081815260016020526040902054600160a060020a03161561103157600080fd5b6000818152600160208181526040808420805473ffffffffffffffffffffffffffffffffffffffff1916600160a060020a038816908117909155845260039091529091205461107f9161109f565b600160a060020a0390921660009081526003602052604090209190915550565b8181018281101561080d57fe5b600160a060020a03821615156110c157600080fd5b6110cb8282610cc4565b6040518190600160a060020a038416906000907fddf252ad1be2c89b69c2b068fc378daa952ba7f163c4a11628f55a4df523b3ef908290a45050565b6000903b1190565b8154818355818111156107925760008381526020902061079291810190830161058891905b808211156111485760008155600101611134565b50905600a165627a7a723058206da2b5df273e06a1c9283fe890e844738ac95a4b33e13fa8709495d9df31d8c70029",
  "source": "pragma solidity 0.4.25;\nimport \"../node_modules/zeppelin-solidity/contracts/token/ERC721/ERC721Token.sol\";\nimport '../node_modules/zeppelin-solidity/contracts/ownership/Ownable.sol';\n\ncontract TokenSSID is ERC721Token, Ownable {\n  \n\n    constructor () ERC721Token(\"SistemaSanitario\", \"SSID\") public {}\n\n/**\n    * Custom accessor to create a unique token\n    */\n    function mintTo(address _to) public returns (uint256) {    \n        uint _TokenId;\n        _TokenId = _getNextTokenId();\n        _mint(_to, _TokenId);\n        return _TokenId;\n    }\n/**\n    * @dev calculates the next token ID based on totalSupply\n    * @return uint256 for the next token ID\n    */\n    function _getNextTokenId() private view returns (uint256) {\n        return totalSupply().add(1); \n    }\n}",
  "sourcePath": "/Users/jordimorreres/repos/SSID/contracts/TokenSSID.sol",
  "compiler": {
    "name": "solc",
    "version": "0.4.25+commit.59dbf8f1.Emscripten.clang"
  },
  "schemaVersion": "3.0.11",
  "updatedAt": "2019-06-23T07:15:29.179Z",
  "devdoc": {
    "methods": {
      "approve(address,uint256)": {
        "details": "Approves another address to transfer the given token ID The zero address indicates there is no approved address. There can only be one approved address per token at a given time. Can only be called by the token owner or an approved operator.",
        "params": {
          "_to": "address to be approved for the given token ID",
          "_tokenId": "uint256 ID of the token to be approved"
        }
      },
      "balanceOf(address)": {
        "details": "Gets the balance of the specified address",
        "params": {
          "_owner": "address to query the balance of"
        },
        "return": "uint256 representing the amount owned by the passed address"
      },
      "exists(uint256)": {
        "details": "Returns whether the specified token exists",
        "params": {
          "_tokenId": "uint256 ID of the token to query the existence of"
        },
        "return": "whether the token exists"
      },
      "getApproved(uint256)": {
        "details": "Gets the approved address for a token ID, or zero if no address set",
        "params": {
          "_tokenId": "uint256 ID of the token to query the approval of"
        },
        "return": "address currently approved for the given token ID"
      },
      "isApprovedForAll(address,address)": {
        "details": "Tells whether an operator is approved by a given owner",
        "params": {
          "_operator": "operator address which you want to query the approval of",
          "_owner": "owner address which you want to query the approval of"
        },
        "return": "bool whether the given operator is approved by the given owner"
      },
      "name()": {
        "details": "Gets the token name",
        "return": "string representing the token name"
      },
      "ownerOf(uint256)": {
        "details": "Gets the owner of the specified token ID",
        "params": {
          "_tokenId": "uint256 ID of the token to query the owner of"
        },
        "return": "owner address currently marked as the owner of the given token ID"
      },
      "renounceOwnership()": {
        "details": "Allows the current owner to relinquish control of the contract."
      },
      "safeTransferFrom(address,address,uint256)": {
        "details": "Safely transfers the ownership of a given token ID to another address If the target address is a contract, it must implement `onERC721Received`, which is called upon a safe transfer, and return the magic value `bytes4(keccak256(\"onERC721Received(address,address,uint256,bytes)\"))`; otherwise, the transfer is reverted.   * Requires the msg sender to be the owner, approved, or operator",
        "params": {
          "_from": "current owner of the token",
          "_to": "address to receive the ownership of the given token ID",
          "_tokenId": "uint256 ID of the token to be transferred"
        }
      },
      "safeTransferFrom(address,address,uint256,bytes)": {
        "details": "Safely transfers the ownership of a given token ID to another address If the target address is a contract, it must implement `onERC721Received`, which is called upon a safe transfer, and return the magic value `bytes4(keccak256(\"onERC721Received(address,address,uint256,bytes)\"))`; otherwise, the transfer is reverted. Requires the msg sender to be the owner, approved, or operator",
        "params": {
          "_data": "bytes data to send along with a safe transfer check",
          "_from": "current owner of the token",
          "_to": "address to receive the ownership of the given token ID",
          "_tokenId": "uint256 ID of the token to be transferred"
        }
      },
      "setApprovalForAll(address,bool)": {
        "details": "Sets or unsets the approval of a given operator An operator is allowed to transfer all tokens of the sender on their behalf",
        "params": {
          "_approved": "representing the status of the approval to be set",
          "_to": "operator address to set the approval"
        }
      },
      "supportsInterface(bytes4)": {
        "details": "implement supportsInterface(bytes4) using a lookup table"
      },
      "symbol()": {
        "details": "Gets the token symbol",
        "return": "string representing the token symbol"
      },
      "tokenByIndex(uint256)": {
        "details": "Gets the token ID at a given index of all the tokens in this contract Reverts if the index is greater or equal to the total number of tokens",
        "params": {
          "_index": "uint256 representing the index to be accessed of the tokens list"
        },
        "return": "uint256 token ID at the given index of the tokens list"
      },
      "tokenOfOwnerByIndex(address,uint256)": {
        "details": "Gets the token ID at a given index of the tokens list of the requested owner",
        "params": {
          "_index": "uint256 representing the index to be accessed of the requested tokens list",
          "_owner": "address owning the tokens list to be accessed"
        },
        "return": "uint256 token ID at the given index of the tokens list owned by the requested address"
      },
      "tokenURI(uint256)": {
        "details": "Returns an URI for a given token ID Throws if the token ID does not exist. May return an empty string.",
        "params": {
          "_tokenId": "uint256 ID of the token to query"
        }
      },
      "totalSupply()": {
        "details": "Gets the total amount of tokens stored by the contract",
        "return": "uint256 representing the total amount of tokens"
      },
      "transferFrom(address,address,uint256)": {
        "details": "Transfers the ownership of a given token ID to another address Usage of this method is discouraged, use `safeTransferFrom` whenever possible Requires the msg sender to be the owner, approved, or operator",
        "params": {
          "_from": "current owner of the token",
          "_to": "address to receive the ownership of the given token ID",
          "_tokenId": "uint256 ID of the token to be transferred"
        }
      },
      "transferOwnership(address)": {
        "details": "Allows the current owner to transfer control of the contract to a newOwner.",
        "params": {
          "_newOwner": "The address to transfer ownership to."
        }
      }
    }
  },
  "userdoc": {
    "methods": {
      "mintTo(address)": {
        "notice": "Custom accessor to create a unique token"
      },
      "renounceOwnership()": {
        "notice": "Renouncing to ownership will leave the contract without an owner. It will not be possible to call the functions with the `onlyOwner` modifier anymore."
      }
    }
  }
}